{
  "contractName": "Contrato",
  "abi": [
    {
      "inputs": [],
      "payable": false,
      "stateMutability": "nonpayable",
      "type": "constructor"
    },
    {
      "constant": true,
      "inputs": [],
      "name": "totalMission",
      "outputs": [
        {
          "internalType": "uint256",
          "name": "",
          "type": "uint256"
        }
      ],
      "payable": false,
      "stateMutability": "view",
      "type": "function"
    },
    {
      "constant": false,
      "inputs": [
        {
          "internalType": "string",
          "name": "_missionDescription",
          "type": "string"
        },
        {
          "internalType": "uint256",
          "name": "_missionCodeFather",
          "type": "uint256"
        }
      ],
      "name": "setMission",
      "outputs": [],
      "payable": false,
      "stateMutability": "nonpayable",
      "type": "function"
    },
    {
      "constant": true,
      "inputs": [
        {
          "internalType": "uint256",
          "name": "_missionCode",
          "type": "uint256"
        }
      ],
      "name": "getMission",
      "outputs": [
        {
          "internalType": "uint256",
          "name": "",
          "type": "uint256"
        },
        {
          "internalType": "string",
          "name": "",
          "type": "string"
        },
        {
          "internalType": "uint256",
          "name": "",
          "type": "uint256"
        },
        {
          "internalType": "address",
          "name": "",
          "type": "address"
        }
      ],
      "payable": false,
      "stateMutability": "view",
      "type": "function"
    },
    {
      "constant": true,
      "inputs": [],
      "name": "totalService",
      "outputs": [
        {
          "internalType": "uint256",
          "name": "",
          "type": "uint256"
        }
      ],
      "payable": false,
      "stateMutability": "view",
      "type": "function"
    },
    {
      "constant": false,
      "inputs": [
        {
          "internalType": "string",
          "name": "_serviceDescription",
          "type": "string"
        }
      ],
      "name": "setService",
      "outputs": [],
      "payable": false,
      "stateMutability": "nonpayable",
      "type": "function"
    },
    {
      "constant": true,
      "inputs": [
        {
          "internalType": "uint256",
          "name": "_serviceCode",
          "type": "uint256"
        }
      ],
      "name": "getService",
      "outputs": [
        {
          "internalType": "uint256",
          "name": "",
          "type": "uint256"
        },
        {
          "internalType": "string",
          "name": "",
          "type": "string"
        },
        {
          "internalType": "address",
          "name": "",
          "type": "address"
        }
      ],
      "payable": false,
      "stateMutability": "view",
      "type": "function"
    }
  ],
  "bytecode": "0x608060405234801561001057600080fd5b506000808190555060006002819055506108c78061002f6000396000f3fe608060405234801561001057600080fd5b50600436106100625760003560e01c806302ea5d1a1461006757806320c32d7614610085578063217d0d57146101405780639da1e84d14610205578063eb2b94b514610223578063ef0e239b1461030b575b600080fd5b61006f6103ec565b6040518082815260200191505060405180910390f35b61013e6004803603602081101561009b57600080fd5b81019080803590602001906401000000008111156100b857600080fd5b8201836020820111156100ca57600080fd5b803590602001918460018302840111640100000000831117156100ec57600080fd5b91908080601f016020809104026020016040519081016040528093929190818152602001838380828437600081840152601f19601f8201169050808301925050505050505091929192905050506103f6565b005b6102036004803603604081101561015657600080fd5b810190808035906020019064010000000081111561017357600080fd5b82018360208201111561018557600080fd5b803590602001918460018302840111640100000000831117156101a757600080fd5b91908080601f016020809104026020016040519081016040528093929190818152602001838380828437600081840152601f19601f820116905080830192505050505050509192919290803590602001909291905050506104ce565b005b61020d6105b6565b6040518082815260200191505060405180910390f35b61024f6004803603602081101561023957600080fd5b81019080803590602001909291905050506105bf565b60405180858152602001806020018481526020018373ffffffffffffffffffffffffffffffffffffffff1673ffffffffffffffffffffffffffffffffffffffff168152602001828103825285818151815260200191508051906020019080838360005b838110156102cd5780820151818401526020810190506102b2565b50505050905090810190601f1680156102fa5780820380516001836020036101000a031916815260200191505b509550505050505060405180910390f35b6103376004803603602081101561032157600080fd5b81019080803590602001909291905050506106d6565b60405180848152602001806020018373ffffffffffffffffffffffffffffffffffffffff1673ffffffffffffffffffffffffffffffffffffffff168152602001828103825284818151815260200191508051906020019080838360005b838110156103af578082015181840152602081019050610394565b50505050905090810190601f1680156103dc5780820380516001836020036101000a031916815260200191505b5094505050505060405180910390f35b6000600254905090565b61040c60016002546107d390919063ffffffff16565b600281905550604051806060016040528060025481526020013373ffffffffffffffffffffffffffffffffffffffff168152602001828152506003600060025481526020019081526020016000206000820151816000015560208201518160010160006101000a81548173ffffffffffffffffffffffffffffffffffffffff021916908373ffffffffffffffffffffffffffffffffffffffff16021790555060408201518160020190805190602001906104c79291906107ed565b5090505050565b6104e460016000546107d390919063ffffffff16565b600081905550604051806080016040528060005481526020018381526020018281526020013373ffffffffffffffffffffffffffffffffffffffff16815250600160008054815260200190815260200160002060008201518160000155602082015181600101908051906020019061055d9291906107ed565b506040820151816002015560608201518160030160006101000a81548173ffffffffffffffffffffffffffffffffffffffff021916908373ffffffffffffffffffffffffffffffffffffffff1602179055509050505050565b60008054905090565b60006060600080846001600087815260200190815260200160002060010160016000888152602001908152602001600020600201546001600089815260200190815260200160002060030160009054906101000a900473ffffffffffffffffffffffffffffffffffffffff16828054600181600116156101000203166002900480601f0160208091040260200160405190810160405280929190818152602001828054600181600116156101000203166002900480156106c05780601f10610695576101008083540402835291602001916106c0565b820191906000526020600020905b8154815290600101906020018083116106a357829003601f168201915b5050505050925093509350935093509193509193565b60006060600083600360008681526020019081526020016000206002016003600087815260200190815260200160002060010160009054906101000a900473ffffffffffffffffffffffffffffffffffffffff16818054600181600116156101000203166002900480601f0160208091040260200160405190810160405280929190818152602001828054600181600116156101000203166002900480156107bf5780601f10610794576101008083540402835291602001916107bf565b820191906000526020600020905b8154815290600101906020018083116107a257829003601f168201915b505050505091509250925092509193909250565b60008183019050828110156107e457fe5b80905092915050565b828054600181600116156101000203166002900490600052602060002090601f016020900481019282601f1061082e57805160ff191683800117855561085c565b8280016001018555821561085c579182015b8281111561085b578251825591602001919060010190610840565b5b509050610869919061086d565b5090565b61088f91905b8082111561088b576000816000905550600101610873565b5090565b9056fea265627a7a72315820a721d5f86586f8d22249f80f51270f661c622a44fec4bb9c4a31ad3a6852f8b664736f6c63430005100032",
  "source": "pragma solidity  >=0.5.16 <0.7.0;\n\nlibrary SafeMath {\n    function add(uint256 a, uint256 b) internal pure returns (uint256 c) {\n        c = a + b;\n        assert(c >= a);\n        return c;\n    }\n    function sub(uint256 a, uint256 b) internal pure returns (uint256) {\n        assert(b <= a);\n        return a - b;\n    }\n    function mul(uint256 a, uint256 b) internal pure returns (uint256 c) {\n        if (a == 0) {\n            return 0;\n        }\n        c = a * b;\n        assert(c / a == b);\n        return c;\n    }\n    function div(uint256 a, uint256 b) internal pure returns (uint256) {\n        assert(b>0);\n        return a / b;\n    }\n}\n\ncontract Contrato{\n    using SafeMath for uint;\n\n    struct Service {\n        uint serviceCode;\n        address serviceConstituentAddress;\n        string serviceDescription;\n    }\n    struct Mission {\n        uint missionCode;\n        string missionDescription;\n        uint missionCodeFather;\n        address missionConstituentAddress;\n    }\n\n    uint private _totalMission;\n    mapping(uint => Mission) private missionMap;\n    uint private _totalService;\n    mapping(uint => Service) private serviceMap;\n    \n    constructor() public {\n        _totalMission = 0;\n        _totalService = 0;\n    }\n\n    function totalMission() public view returns (uint) {\n        return _totalMission;\n    }\n\n    function setMission(string memory _missionDescription, uint _missionCodeFather) public {\n        _totalMission = _totalMission.add(1);\n        missionMap[_totalMission] = Mission(_totalMission, _missionDescription, _missionCodeFather, msg.sender);\n    }\n\n    function getMission(uint  _missionCode) public view returns (uint, string memory, uint, address) {\n        return (_missionCode, missionMap[_missionCode].missionDescription,\n            missionMap[_missionCode].missionCodeFather, missionMap[_missionCode].missionConstituentAddress);\n    }\n    function totalService() public view returns (uint) {\n        return _totalService;\n    }\n\n    function setService(string memory _serviceDescription) public {\n        _totalService = _totalService.add(1);\n        serviceMap[_totalService] = Service(_totalService, msg.sender, _serviceDescription);\n    }\n\n    function getService(uint _serviceCode) public view returns (uint, string memory, address) {\n        return (_serviceCode, serviceMap[_serviceCode].serviceDescription, serviceMap[_serviceCode].serviceConstituentAddress);\n    }\n\n\n\n}",
  "sourcePath": "D:\\2020_Contrato_web3_react_v5\\src\\contracts\\Contrato.sol",
  "compiler": {
    "name": "solc",
    "version": "0.5.16+commit.9c3226ce.Emscripten.clang"
  },
  "schemaVersion": "3.0.23",
  "updatedAt": "2020-02-24T12:41:13.350Z",
  "networkType": "ethereum",
  "devdoc": {
    "methods": {}
  },
  "userdoc": {
    "methods": {}
  }
}